:100000000C94A3000C94CB000C94CB000C94CB006C
:100010000C94CB000C94CB000C94CB000C94CB0034
:100020000C94CB000C94CB000C94CB000C94CB0024
:100030000C94CB000C94CB000C94CB000C94CB0014
:100040000C9433090C94CB000C94A3090C947D09F7
:100050000C94CB000C94CB000C94CB000C94CB00F4
:100060000C94D5090C94CB0008000000BE922449E2
:10007000123EABAAAA2ABECDCCCC4C3E00000080DA
:10008000BEABAAAAAA3E00000000BF000000803F4D
:100090000000000000084178D3BB4387D1133D190D
:1000A0000E3CC3BD4282AD2B3E68EC8276BED98F3A
:1000B000E1A93E4C80EFFFBE01C4FF7F3F0000007E
:1000C000000007634236B79BD8A71A39685618AEA6
:1000D000BAAB558C1D3CB7CC5763BD6DEDFD753E7D
:1000E000F6177231BF000000803F000000002300BF
:1000F0002600290000000000240027002A0000003C
:100100000000250028002B0000000008000201006C
:1001100000030407000000000000000004040404C1
:1001200004040404020202020202030303030303A1
:10013000010204081020408001020408102001027E
:1001400004081020F40A11241FBECFEFD8E0DEBF50
:10015000CDBF12E0A0E0B1E0E6E8F7E202C0059012
:100160000D92AE31B107D9F723E0AEE1B2E001C0A4
:100170001D92A73CB207E1F710E0C3EAD0E004C04B
:100180002197FE010E94BB13C23AD107C9F70E9412
:10019000780B0C94C1130C940000FC01538D448D1A
:1001A000252F30E0842F90E0821B930B541710F022
:1001B000CF96089501970895FC01918D828D98172F
:1001C00061F0A28DAE0FBF2FB11D5D968C91928D07
:1001D0009F5F9F73928F90E008958FEF9FEF089538
:1001E000FC01918D828D981731F0828DE80FF11D01
:1001F000858D90E008958FEF9FEF0895FC01918D1C
:10020000228D892F90E0805C9F4F821B91098F7314
:1002100099270895FC01A48DA80FB92FB11DA35AE9
:10022000BF4F2C91848D90E001968F739927848F16
:10023000A689B7892C93A089B1898C918370806439
:100240008C93938D848D981306C00288F389E02DDA
:1002500080818F7D80830895EF92FF920F931F938B
:10026000CF93DF93EC0181E0888F9B8D8C8D981369
:100270001AC0E889F989808185FF15C09FB7F89475
:10028000EE89FF896083E889F989808183708064C1
:1002900080839FBF81E090E0DF91CF911F910F910C
:1002A000FF90EF900895F62E0B8D10E00F5F1F4F1B
:1002B0000F731127E02E8C8D8E110CC00FB607FC2A
:1002C000FACFE889F989808185FFF5CFCE010E94B8
:1002D0000A01F1CFEB8DEC0FFD2FF11DE35AFF4F1B
:1002E000F0829FB7F8940B8FEA89FB898081806246
:1002F000CFCFCF93DF93EC01888D8823B9F0AA8903
:10030000BB89E889F9898C9185FD03C0808186FDD0
:100310000DC00FB607FCF7CF8C9185FFF2CF80811F
:1003200085FFEDCFCE010E940A01E9CFDF91CF9189
:1003300008958BEE92E00E94FE0021E0892B09F4E3
:1003400020E0822F089580E090E0892B29F00E9420
:10035000990181110C940000089590E0FC01E85F80
:10036000FE4F2491FC01E05DFE4F3491FC01E45E00
:10037000FE4FE491EE23C9F0222339F0233001F13E
:10038000A8F4213019F1223029F1F0E0EE0FFF1F1F
:10039000E250FF4FA591B4918FB7F894EC916111A1
:1003A00026C030953E233C938FBF08952730A9F097
:1003B0002830C9F0243049F7809180008F7D03C038
:1003C000809180008F7780938000DFCF84B58F7716
:1003D00084BDDBCF84B58F7DFBCF8091B0008F775C
:1003E0008093B000D2CF8091B0008F7DF9CF3E2BAB
:1003F000DACFCF93DF9390E0FC01E05DFE4F2491D4
:10040000845E9E4FFC0184918823D1F090E0880F98
:10041000991FFC01EC50FF4FA591B491FC01E250F3
:10042000FF4FC591D491623071F49FB7F8943C911D
:10043000822F809583238C93E8812E2B28839FBF66
:10044000DF91CF9108958FB7F894EC912E2B2C93D8
:100450008FBFF6CF3FB7F8948091E3029091E4020A
:10046000A091E502B091E60226B5A89B05C02F3FFA
:1004700019F00196A11DB11D3FBFBA2FA92F982FCA
:100480008827BC01CD01620F711D811D911D42E0C5
:10049000660F771F881F991F4A95D1F708958F928D
:1004A0009F92AF92BF92CF92DF92EF92FF924B0159
:1004B0005C010E942A026B017C010E942A026C19D5
:1004C0007D098E099F09683E734081059105A8F357
:1004D00021E0821A9108A108B10888EEC80E83E0D5
:1004E000D81EE11CF11C81149104A104B10429F768
:1004F000FF90EF90DF90CF90BF90AF909F908F9044
:10050000089508950895AF92BF92CF92DF92EF922F
:10051000FF920F931F93CF93DF936C017B018B01AD
:10052000040F151FEB015E01AE18BF08C017D107FD
:1005300059F06991D601ED91FC910190F081E02D87
:10054000C6010995892B79F7C501DF91CF911F91DC
:100550000F91FF90EF90DF90CF90BF90AF900895F4
:10056000089520915F02260F3327331F2132310572
:10057000ECF42091A802FC0190E080E0243069F0C6
:1005800082E00895A0915F022191AC01415C5D4F32
:10059000A40FB52FB11D2C930196861798F3809167
:1005A0005F02680F60935F0280E0089581E0089524
:1005B0001092A80281E08093A7021092820261E06B
:1005C00082E10E94AD0161E083E10E94AD01E9EBAF
:1005D000F0E080818E7F808380818D7F808388E4BE
:1005E0008093B80085E48093BC000895CF93DF9397
:1005F00091E090933E028823B9F0C091B800D09169
:10060000BA008091BC008A7B8093BC0060E082E1EC
:100610000E94AD0160E083E10E94AD010E94D8021A
:10062000D093BA00C093B800DF91CF910895089598
:10063000E091D7028091D602E81730F4F0E0E25E54
:10064000FD4F808190E008958FEF9FEF0895909186
:10065000D7028091D6022FEF3FEF981748F4E92F89
:10066000F0E0E25EFD4F208130E09F5F9093D70283
:10067000C90108958091D6029091D702891B990BE8
:100680000895CF92DF92EF92FF920F931F93CF9333
:10069000DF937C01CB018A012091AE02222389F0F5
:1006A000EB016B01C40ED51ECC15DD0569F0699117
:1006B000D701ED91FC910190F081E02DC7010995E2
:1006C000F3CF642F0E94B102C801DF91CF911F9137
:1006D0000F91FF90EF90DF90CF900895CF93DF932D
:1006E0001F92CDB7DEB769832091AE022223F9F0C5
:1006F0002091D402203258F021E030E0FC01338315
:10070000228390E080E00F90DF91CF910895809157
:10071000D502E82FF0E0E155FD4F998190838F5F7E
:100720008093D5028093D40281E090E0ECCF61E029
:10073000CE0101960E94B102F7CFCF92DF92EF92E5
:10074000FF920F931F93CF93DF93FC01C48121E0AD
:100750002093AE02C093CF021092D5021092D40221
:100760008485682B88E893E00E946E03D091D402C0
:10077000D13208F092C00E942A026B017C01809164
:10078000A802811165C082E08093A80281E0809375
:10079000A7028FEF8093A6021092A502D093A40225
:1007A000AFEAB2E0E4E8F2E080E0D81385C010924E
:1007B000830280918302CC0FC82BC0938302809167
:1007C0008202813009F07CC0109282020E942A02CB
:1007D0006B017C01809183028093BB008091AA020F
:1007E0009091AB02A091AC02B091AD02892B8A2B03
:1007F0008B2B99F00E942A020091AA021091AB0261
:100800002091AC023091AD026C197D098E099F09CF
:100810000617170728073907E0F18091BC0083FD10
:10082000D9CF85EC8093BC000E942A026B017C0129
:100830008091A802823009F445C08091A6028F3FC2
:1008400061F18091A602803241F18091A60225C01B
:100850008091AA029091AB02A091AC02B091AD023E
:10086000892B8A2B8B2B09F48ACF0E942A020091B4
:10087000AA021091AB022091AC023091AD026C192A
:100880007D098E099F09061717072807390708F001
:1008900076CF8091A9020E94F6021092D5021092A2
:1008A000D4021092AE02DF91CF911F910F91FF9071
:1008B000EF90DF90CF9008959D9191938F5F75CFCA
:1008C00085EEB0CF8091AA029091AB02A091AC02CC
:1008D000B091AD02892B8A2B8B2B09F4A9CF0E94F2
:1008E0002A020091AA021091AB022091AC02309131
:1008F000AD026C197D098E099F0906171707280795
:10090000390708F095CFC5CF90E080E00895CF92E9
:10091000DF92EF92FF92CF93DF93DC011796CC9199
:100920001797D0E06111DC2F18962C91189730E0C2
:10093000220F331F26513F4F50E040E0F9018591CF
:100940009491FC01F080BA0190E080E0EF2DEC235F
:10095000ED1310C04F5F5F4F1D96CD90DD90ED9071
:10096000FC9050976C157D058E059F0538F36FEF51
:100970007FEFCB01DF91CF91FF90EF90DF90CF9091
:1009800008958F929F92AF92BF92CF92DF92EF9293
:10099000FF920F931F93CF93DF93CDB7DEB7C05471
:1009A000D1400FB6F894DEBF0FBECDBF2FB7F8947D
:1009B0004091E7025091E8026091E9027091EA02E9
:1009C0002FBFFC0101851285238534856A017B01D7
:1009D000C01AD10AE20AF30A97018601003D1740C6
:1009E00021053105B0F4FC018189C05CDE4F0FB6F2
:1009F000F894DEBF0FBECDBFDF91CF911F910F9155
:100A0000FF90EF90DF90CF90BF90AF909F908F902E
:100A100008958C01FC014187528763877487148293
:100A2000138212821182108262E085810E94F90194
:100A300061E070E080E090E00E944F0261E0F80128
:100A400085810E94F90160E0F80185810E94AD0175
:100A5000F80186818551823028F58BE291E101977A
:100A6000F1F762E0F80185810E94F901F8018289BD
:100A700090E08230910538F0880F991F880F991FF8
:100A800005970197F1F7F89460E0C8010E94870488
:100A90006F3F7F4F8F4F9F4F61F4F801118A789419
:100AA00080E0A3CF64E170E080E090E00E944F021C
:100AB000D8CF61E0C8010E9487046F3F7F4F8F4FFE
:100AC0009F4F59F3CE0101967C015E019FEBA91A5D
:100AD0009EEFB90A670160E0C8010E948704F60131
:100AE000608371838283938361E0C8010E948704DD
:100AF000F6016483758386839783F8E0CF0ED11C5B
:100B0000CA14DB0441F7789430E020E0F7018080DC
:100B10009180A280B3804481558166817781FFEF07
:100B20008F169F06AF06BF0631F04F3F8FEF580775
:100B30006807780719F4F801118AB2CFF90183E048
:100B4000F595E7958A95E1F7E00FF11F8081880F11
:100B500084169506A606B706F0F080832F5F3F4FF8
:100B6000F8E0EF0EF11C2832310581F6F8014481DE
:100B700020818181280F3327331F8281280F311D67
:100B80008381820F932F911D99274817190699F693
:100B900081E0818B2ACF8160E0CFCF92DF92EF920C
:100BA000FF921F93CF93DF93EC010E94C10488232F
:100BB00039F08E818C3009F44DC038F48B30E1F07F
:100BC00060E070E080EC9FE73DC085518230C0F767
:100BD0001A81612F70E0762F662766277F778B81D9
:100BE000682B90E080E00E94C4102DEC3CEC4CECB3
:100BF0005DE30E94D31148C06A8170E090E080E01C
:100C00000E94C4106B017C01CB81C7FF0AC0AC01FC
:100C10009B0160E070E080E89FEB0E94B10F6B01E8
:100C20007C01CF706C2F70E090E080E00E94C610D5
:100C30002DEC3CEC4CEC5DE30E94D311A701960136
:100C40000E94B20FDF91CF911F91FF90EF90DF9044
:100C5000CF9008951A81612F70E090E080E00E94AB
:100C6000C4106B017C016B816F7070E090E080E0DC
:100C70000E94C6102DEC3CEC4CEC5DE30E94D311BD
:100C8000A70196010E94B20F17FFDCCF9058DACF70
:100C9000CF92DF92EF92FF92CF93DF93EC010E940D
:100CA000C104882341F08E818B3028F08D3040F0D4
:100CB0008551823030F160E070E080EC9FE71AC02F
:100CC000698170E090E080E00E94C6102DEC3CEC61
:100CD0004CEC5DE30E94D3116B017C01688170E0F4
:100CE00090E080E00E94C6109B01AC01C701B601F4
:100CF0000E94B20FDF91CF91FF90EF90DF90CF90E5
:100D000008956881798176276727762790E080E0CB
:100D10000E94C4102DEC3CEC4CEC5DE30E94D3111E
:100D2000E9CFFC0101900020E9F73197AF01481BA2
:100D3000590BBC0184E993E00C9483028F929F923B
:100D4000AF92BF920F931F93CF93DF93CDB7DEB7D0
:100D5000A1970FB6F894DEBF0FBECDBF19A24230E7
:100D600008F44AE08E010F5D1F4F842E912CB12CA8
:100D7000A12CA50194010E947A13E62FB901CA01A2
:100D8000EA30F4F4E05DD801EE938D01232B242B9F
:100D9000252B79F790E080E0109719F0CD010E94A3
:100DA0009106A1960FB6F894DEBF0FBECDBFDF91BE
:100DB000CF911F910F91BF90AF909F908F9008950A
:100DC000E95CE1CF0C9491060F931F93CF938C01B4
:100DD000C62F0E949D036C2F6460C8010E949D0372
:100DE0006C2F6B7FC8010E949D0383EC90E00197FC
:100DF000F1F7CF911F910F9108950F931F93CF9308
:100E0000DF938C01D62FC42F607F642B0E94E406F1
:100E100080E1D89FB00111246C2BC801DF91CF91E4
:100E20001F910F910C94E406CF93DF93CDB7DEB7FB
:100E300028970FB6F894DEBF0FBECDBF98E0E1E073
:100E4000F1E0DE01119601900D929A95E1F79091F3
:100E50009C03961710F46FEF690F262F30E0220FD6
:100E6000331F41E050E04C0F5D1F240F351FF90187
:100E70006081680F606840E084E993E028960FB6CF
:100E8000F894DEBF0FBECDBFDF91CF910C94FD066D
:100E900040E061E084E993E00E94FD068BE39FE17E
:100EA0000197F1F780919D03882321F060E080E0B5
:100EB0000C941407089541E00E94FD0681E090E043
:100EC00008954F925F926F927F928F929F92AF920E
:100ED000BF92CF92DF92EF92FF92CF93DF936B019D
:100EE0007C01AC019B010E949012882391F089E45F
:100EF00091E0DF91CF91FF90EF90DF90CF90BF9086
:100F0000AF909F908F907F906F905F904F900C94D8
:100F1000910646015701E894B7F82FEF3FEF4FE7EE
:100F20005FE7C501B4010E94901281110DC02FEF3F
:100F30003FEF4FE75FE7C501B4010E941E1018168E
:100F40001CF48DE491E0D5CF2FEF3FEF4FE75FE446
:100F5000C701B6010E94761118161CF481E591E0D4
:100F6000C8CF2FEF3FEF4FE75FECC701B6010E94FC
:100F70001E1087FDF3CF20E030E0A901C701B601C4
:100F80000E941E10D0E0C0E087FF0CC041E06DE27F
:100F900084E993E00E94FD06F7FAF094F7F8F094E4
:100FA000C1E0D0E02AE037ED43EA5BE3C701B601D8
:100FB0000E94B20F4B015C010E9495106B017C01F5
:100FC0000E94C4109B01AC01C501B4010E94B10F85
:100FD0004B015C014AE0C701B6010E949E067C01FC
:100FE000EC0EFD1E41E06EE284E993E00E94FD06F6
:100FF0008FEFE81AF80A20E030E040E251E4C50142
:10100000B4010E94D3112B013C010E9495104B01A9
:10101000B12CA12C4AE0C501B4010E949E06E80E45
:10102000F91EC501B4010E94C4109B01AC01C301AB
:10103000B2010E94B10F20E030E040E251E40E9492
:10104000D3110E94951090E080E04AE00E949E0635
:101050008E0D9F1DDF91CF91FF90EF90DF90CF908D
:10106000BF90AF909F908F907F906F905F904F90C8
:10107000089585ED8093BC008091AA029091AB0207
:10108000A091AC02B091AD020796A11DB11D23E065
:10109000B695A795979587952A95D1F72091BC008D
:1010A00024FD03C01092A80208954091AA02509115
:1010B000AB026091AC027091AD02452B462B472BE1
:1010C00069F30097A105B10541F02AE22A95F1F7ED
:1010D00000C00197A109B109E1CF8091A9020C9448
:1010E000F6024F925F926F927F928F929F92AF9291
:1010F000BF92CF92DF92EF92FF92CF93DF93CDB763
:10110000DEB728970FB6F894DEBF0FBECDBF4B01F8
:101110005C012D833E834F83588720E030E0A90196
:101120000E94761187FF1EC020E030E0A901C501B2
:10113000B4010E941E1023E3C22E23EBD22E20E71F
:10114000E22E23E4F22E33E3432E542C33EF632EAE
:1011500030E4732E87FD14C0C12CD12C76012601FA
:1011600037010EC08DECC82E8CE4D82E8DE6E82E0B
:1011700083E4F82E412C512C90EF692E90E4792EC7
:10118000A5019401C301B2010E94D31169837A833E
:101190008B839C83A5019401C701B6010E94B20F05
:1011A0009B01AC0169817A818B819C810E94231013
:1011B0009B01AC0160E070E080E291E40E9440128B
:1011C00069837A838B839C8320E030E048EC52E48F
:1011D0006D817E818F8198850E9423104B015C0177
:1011E00029E133E743EC50E469817A818B819C816A
:1011F0000E94D3119B01AC01C501B4010E94D3111F
:1012000029E133E743EC50E40E9423100E947B1154
:101210004B015C01AC019B01C701B6010E94D311D7
:101220006B017C01A5019401C301B2010E94B10FC1
:101230009B01AC01C701B6010E94231028960FB68E
:10124000F894DEBF0FBECDBFDF91CF91FF90EF903E
:10125000DF90CF90BF90AF909F908F907F906F90D6
:101260005F904F9008951F920F920FB60F92112426
:101270002F933F938F939F93AF93BF938091E702F8
:101280009091E802A091E902B091EA023091E20265
:1012900023E0230F2D3758F50196A11DB11D209392
:1012A000E2028093E7029093E802A093E902B093F0
:1012B000EA028091E3029091E402A091E502B091EC
:1012C000E6020196A11DB11D8093E3029093E40212
:1012D000A093E502B093E602BF91AF919F918F91E9
:1012E0003F912F910F900FBE0F901F90189526E8F9
:1012F000230F0296A11DB11DD2CF1F920F920FB6E0
:101300000F9211242F933F934F935F936F937F938B
:101310008F939F93AF93BF93EF93FF938BEE92E0E6
:101320000E940A01FF91EF91BF91AF919F918F9120
:101330007F916F915F914F913F912F910F900FBED1
:101340000F901F9018951F920F920FB60F921124B5
:101350002F938F939F93EF93FF93E091FB02F09174
:10136000FC028081E0910103F091020382FD1BC029
:101370009081809104038F5F8F7320910503821702
:1013800041F0E0910403F0E0E551FD4F958F80932B
:101390000403FF91EF919F918F912F910F900FBEBA
:1013A0000F901F9018958081F4CF1F920F920FB667
:1013B0000F9211242F933F934F935F936F937F93DB
:1013C0008F939F93AF93BF93EF93FF938091B90057
:1013D000887F803609F44AC0F0F5883209F4A7C046
:1013E00018F5803109F49BC0B8F4882309F4F9C0DA
:1013F000883009F494C0FF91EF91BF91AF919F9114
:101400008F917F916F915F914F913F912F910F90AD
:101410000FBE0F901F901895883109F488C0803254
:1014200051F78093A60214C0803409F49DC040F4A3
:101430008033B9F38833F9F68093A60285ECB0C007
:10144000803509F485C0883509F496C0883499F64A
:101450000E943908D0CF883909F48CC038F5883714
:1014600029F050F4883611F0803729F683E0809314
:10147000A8021092810257C0883809F47BC08039D5
:1014800019F0803809F0B7CF80918102803208F0DE
:1014900071C0E091810281E08E0F80938102809182
:1014A000BB00F0E0EF59FD4F80833DC0803B39F039
:1014B000E0F4803A09F479C0883A09F09CCF84E0DE
:1014C0008093A8021092600210925F02E091D20213
:1014D000F091D302099580915F0281110FC081E0E4
:1014E00080935F0210923F0209C0803C09F4A6CFAE
:1014F000883C09F4A3CF883B09F07DCFE0916002DE
:1015000081E08E0F80936002F0E0E15CFD4F80810E
:101510008093BB009091600280915F0229C080910E
:1015200083028093BB0085EC8093BC0064CF9091D4
:10153000A5028091A402981758F5E091A50281E0D8
:101540008E0F8093A502F0E0EC57FD4F8081E9CF2C
:10155000E091A50281E08E0F8093A5028091BB00EF
:10156000F0E0EC57FD4F80839091A5028091A4029A
:101570009817C8F285E8D8CFE091A50281E08E0FD8
:101580008093A5028091BB00F0E0EC57FD4F808373
:101590008091A70281115CCF81E08093820284EA6E
:1015A0008093BC001092A80226CF85EC8093BC00EB
:1015B0001092A80280918102803230F4E091810281
:1015C000F0E0EF59FD4F10826091810270E0E091F0
:1015D000D002F091D10281E692E009951092810249
:1015E0000ACF1092A60234CFEBEEF2E01382128201
:1015F00088EE93E0A0E0B0E084839583A683B78370
:101600002DE131E03183208325EC30E035872487DC
:1016100024EC30E03787268720EC30E0318B208BBC
:1016200021EC30E0338B228B22EC30E0358B248BA5
:1016300026EC30E0378B268B118E128E138E148E93
:10164000E8E8F3E01382128284839583A683B7834C
:101650008FE291E091838083A4EBB3E088E015965C
:101660008C93159786E116968C931697E8E3F1E034
:10167000E4911796EC931797E4E2F1E0E491189661
:10168000EC93189740E85EE360E070E01D964D93A0
:101690005D936D937C935097A1EAB3E099E0159622
:1016A0009C93159716968C931697E9E3F1E0E491D5
:1016B0001796EC931797E5E2F1E0E4911896EC9316
:1016C00018971D964D935D936D937C935097E4E925
:1016D000F3E01382128281E491E09183808311868A
:1016E00087E2848384E1828784E083871486089577
:1016F000CF93DF93CDB7DEB76C970FB6F894DEBF0C
:101700000FBECDBF789484B5826084BD84B58160FE
:1017100084BD85B5826085BD85B5816085BD8091BC
:101720006E00816080936E00109281008091810034
:10173000826080938100809181008160809381002C
:10174000809180008160809380008091B1008460EE
:101750008093B1008091B00081608093B00080914F
:101760007A00846080937A0080917A00826080930E
:101770007A0080917A00816080937A0080917A006B
:10178000806880937A001092C10088E199E20FB6D8
:10179000F894A895809360000FBE9093600061E07C
:1017A00083E00E94F90161E083E00E94AD011092A4
:1017B000D7021092D6021092D5021092D4020E9443
:1017C000D80281E892E09093D3028093D20282E81B
:1017D00092E09093D1028093D0021092990380916D
:1017E0009F03823018F098E09093990380939C03B4
:1017F00062E370E080E090E00E944F026091A003FD
:1018000084E993E00E949D0368EE73E080E090E03D
:101810000E944F0260E384E993E00E94E4060BE437
:1018200016E4C8010197F1F760E384E993E00E94B0
:10183000E406C8010197F1F760E384E993E00E94B0
:10184000E40683E592E00197F1F760E284E993E032
:101850000E94E40660919903606240E084E993E0AD
:101860000E94FD0684E080939A0340E06CE084E9E6
:1018700093E00E94FD060E94480782E080939B034C
:1018800040E066E084E993E00E94FD0640E062E00B
:1018900084E993E00E94FD068BE39FE10197F1F755
:1018A00018E01093A00360E084E993E00E949D0398
:1018B00060E082E00E94140785E591E00E94E20664
:1018C000E9E0F1E0DE01199601900D921A95E1F739
:1018D00040E060E484E993E00E94FD068E01075F2A
:1018E0001F4F7E0181E1E80EF11C6801F801619152
:1018F0008F0184E993E00E945B070E151F05B1F785
:1019000088E0E1E1F1E0DE01119601900D928A9507
:10191000E1F740E068E484E993E00E94FD06CE012F
:1019200001967C01F70161917F0184E993E00E94B7
:101930005B07EC14FD04B1F762E08091B9030E94EB
:10194000F9012FB7F8948091E7029091E802A091F5
:10195000E902B091EA022FBF805D9740A109B10969
:101960008093BD039093BE03A093BF03B093C003C5
:1019700017E31093C60362E08091A6030E94F90169
:101980002FB7F8948091E7029091E802A091E902C4
:10199000B091EA022FBF805D9740A109B109809301
:1019A000AA039093AB03A093AC03B093AD03109341
:1019B000B30380E0282E80E0382E11E084EB93E022
:1019C0000E94480620E030E0A9010E94B20F2B01DE
:1019D0003C0184EB93E00E94CD0520E030E0A901BA
:1019E0000E94B20F4B015C0181EA93E00E9448061D
:1019F00023E333E343E35FE30E94B20F698B7A8B07
:101A00008B8B9C8B81EA93E00E94CD052DEC3CEC06
:101A10004CEC5DE30E94B20F6B017C0180910001F0
:101A2000882309F49AC010920001A3019201C30116
:101A3000B2010E949012811131C0A5019401C5012B
:101A4000B4010E949012811129C020E030E048ECDE
:101A500052E4C301B2010E9476111816FCF020E096
:101A600030E040E85FE3C301B2010E941E1087FD31
:101A700015C020E030E040E252ECC501B4010E9404
:101A80001E1087FD0BC020E030E040EA52E4C501A3
:101A9000B4010E94761118160CF093C061E080E04A
:101AA0000E94140786E691E00E94E206109300016E
:101AB00060ED77E080E090E00E944F0229893A894A
:101AC0004B895C89CA01B9010E949012811135C00D
:101AD000A7019601C701B6010E94901281112DC085
:101AE00020E030E048EC52E469897A898B899C894E
:101AF0000E94761118160CF120E030E040E85FE318
:101B000069897A898B899C890E941E1087FD15C07E
:101B100020E030E040E252ECC701B6010E941E1006
:101B200087FD0BC020E030E040EA52E4C701B60177
:101B30000E94761118160CF04DC062E080E00E9401
:101B400014078AE891E00E94E2061093000160ED1C
:101B500077E080E090E00E944F02A3019201C30170
:101B6000B2010E949012811119C0A5019401C50112
:101B7000B4010E949012811111C029893A894B89C0
:101B80005C89CA01B9010E949012811107C0A701A6
:101B90009601C701B6010E949012811110930001B5
:101BA000809100018823F9F061E083E00E94AD019B
:101BB00063E080E00E9414078EEA91E00E94E20652
:101BC000FFCF61E080E00E94140786E791E00E9469
:101BD000E2066ECF62E080E00E9414078AE991E09D
:101BE0000E94E206B4CFA895A3019201C501B401F9
:101BF0000E9471086D8B7E8B8F8B988F29893A8913
:101C00004B895C89C701B6010E947108698F7A8F80
:101C10008B8F9C8F0E94480760E080E00E94140731
:101C200080EC91E00E94E206C501B4010E946107C8
:101C300060E084E993E00E945B0786EC91E00E94FB
:101C4000E206C301B2010E9461078AEC91E00E94A2
:101C5000E20661E080E00E9414078CEC91E00E94B3
:101C6000E206C701B6010E94610760E084E993E0E3
:101C70000E945B0786EC91E00E94E20669897A89FE
:101C80008B899C890E9461078AEC91E00E94E206A0
:101C900062E080E00E94140782ED91E00E94E2067B
:101CA0006D897E898F89988D0E94610760E084E943
:101CB00093E00E945B0788ED91E00E94E20663E0FA
:101CC00080E00E9414078AED91E00E94E206698D8F
:101CD0007A8D8B8D9C8D0E94610760E084E993E092
:101CE0000E945B0788ED91E00E94E20660E777E1E1
:101CF00080E090E00E944F02A8950E94480760E0B3
:101D000080E00E941407298D3A8D4B8D5C8D6D8982
:101D10007E898F89988D0E94B10F2B013C0120E0B4
:101D200030E040EA50E40E947611181614F4109343
:101D3000E10220E030E040E850E4C301B2010E943B
:101D40001E1087FD1092E10220E030E040E850E4F0
:101D5000C501B4010E941E1087FFD4C01092E10299
:101D600020E030E040E850E4C701B6010E941E10B8
:101D700087FFD3C01092E1028091E102882309F429
:101D8000CCC060E083E00E94AD0180EE91E00E9453
:101D9000E2068091E1029091E002891751F180936F
:101DA000E002882399F08091DC029091DD02A091FD
:101DB000DE02B091DF020196A11DB11D8093DC020D
:101DC0009093DD02A093DE02B093DF022FB7F89468
:101DD0008091E7029091E802A091E902B091EA02B5
:101DE0002FBF8093D8029093D902A093DA02B093C8
:101DF000DB022FB7F8946091E7027091E8028091BE
:101E0000E9029091EA022FBFC090D802D090D90287
:101E1000E090DA02F090DB026C197D098E099F09CF
:101E2000161617061806190604F520E63AEE40E0E5
:101E300050E00E949C1369017A0161E080E00E94F9
:101E4000140785EF91E00E94E206FCE3CF16D1046F
:101E5000E104F1040CF068C04AE0C701B6010E9439
:101E60009E068BEF91E00E94E20662E080E00E9415
:101E7000140788E092E00E94E206C090DC02D09055
:101E8000DD02E090DE02F090DF024AE0C701B60119
:101E9000F7FE0EC041E06DE284E993E00E94FD068A
:101EA00066277727CB016C197D098E099F094AE0C7
:101EB0000E949E0663E080E00E94140780E192E0A9
:101EC0000E94E206C301B2010E94610760E084E95A
:101ED00093E00E945B0788ED91E00E94E20660EAD1
:101EE0007FE080E090E00E944F02A8952114310429
:101EF00009F464CD0E949901882309F45FCD0E9402
:101F000000005CCD20E030E040E850E4C701B601BD
:101F10000E941E1087FD2ECF2FCF61E083E00E942C
:101F2000AD018AEE91E033CFC701B6012CE330E07A
:101F300040E050E00E947A1349015A016B017C0194
:101F40004AE0C501B4010E949E068EE092E00E9424
:101F5000E2064AE0C701B6010E949E0685E092E0D3
:101F600082CF5058BB27AA270E94C90F0C943C115E
:101F70000E942E1138F00E94351120F039F49F3F55
:101F800019F426F40C942B110EF4E095E7FB0C9455
:101F90002511E92F0E944D1158F3BA1762077307F4
:101FA0008407950720F079F4A6F50C946F110EF4D0
:101FB000E0950B2EBA2FA02D0B01B90190010C0159
:101FC000CA01A0011124FF27591B99F0593F50F471
:101FD000503E68F11A16F040A22F232F342F4427C9
:101FE000585FF3CF469537952795A795F0405395C1
:101FF000C9F77EF41F16BA0B620B730B840BBAF091
:102000009150A1F0FF0FBB1F661F771F881FC2F7FB
:102010000EC0BA0F621F731F841F48F4879577950F
:102020006795B795F7959E3F08F0B0CF9395880FC9
:1020300008F09927EE0F9795879508950E94011152
:1020400008F481E008950E9437100C943C110E941E
:10205000351158F00E942E1140F029F45F3F29F00D
:102060000C94251151110C9470110C942B110E9499
:102070004D1168F39923B1F3552391F3951B550B3B
:10208000BB27AA2762177307840738F09F5F5F4F4B
:10209000220F331F441FAA1FA9F335D00E2E3AF08A
:1020A000E0E832D091505040E695001CCAF72BD0A2
:1020B000FE2F29D0660F771F881FBB1F26173707F3
:1020C0004807AB07B0E809F0BB0B802DBF01FF2725
:1020D00093585F4F3AF09E3F510578F00C942511CC
:1020E0000C9470115F3FE4F3983ED4F38695779596
:1020F0006795B795F7959F5FC9F7880F911D9695DE
:10210000879597F90895E1E0660F771F881FBB1F39
:10211000621773078407BA0720F0621B730B840BE6
:10212000BA0BEE1F88F7E09508950E94551188F0CC
:102130009F5798F0B92F9927B751B0F0E1F0660F8B
:10214000771F881F991F1AF0BA95C9F714C0B130CC
:1021500091F00E946F11B1E008950C946F11672FF8
:10216000782F8827B85F39F0B93FCCF386957795FB
:102170006795B395D9F73EF49095809570956195E4
:102180007F4F8F4F9F4F0895E89409C097FB3EF40F
:1021900090958095709561957F4F8F4F9F4F9923B4
:1021A000A9F0F92F96E9BB279395F6958795779532
:1021B0006795B795F111F8CFFAF4BB0F11F460FFF2
:1021C0001BC06F5F7F4F8F4F9F4F16C0882311F04A
:1021D00096E911C0772321F09EE8872F762F05C05E
:1021E000662371F096E8862F70E060E02AF09A95F9
:1021F000660F771F881FDAF7880F9695879597F9EE
:102200000895990F0008550FAA0BE0E8FEEF161687
:102210001706E807F907C0F012161306E407F507DA
:1022200098F0621B730B840B950B39F40A2661F04E
:10223000232B242B252B21F408950A2609F4A140F1
:10224000A6958FEF811D811D089597F99F6780E8FE
:1022500070E060E008959FEF80EC089500240A94F8
:102260001616170618060906089500240A94121671
:102270001306140605060895092E0394000C11F4A4
:10228000882352F0BB0F40F4BF2B11F460FF04C051
:102290006F5F7F4F8F4F9F4F089557FD9058440FAA
:1022A000551F59F05F3F71F04795880F97FB991FB5
:1022B00061F09F3F79F08795089512161306140672
:1022C000551FF2CF4695F1DF08C0161617061806FF
:1022D000991FF1CF86957105610508940895E894DA
:1022E000BB2766277727CB0197F908950E94011134
:1022F00008F48FEF08950E948B1129ED3BE54EED18
:102300005EE30C94D31116F00C94CF120C942B11A5
:1023100068940C9425110E945511A8F39923C1F3D8
:10232000AEF3DF93CF931F930F93FF92C92FDD2757
:1023300088232AF02197660F771F881FDAF720E09D
:1023400030E040E85FEB9FE3883920F0803E38F0D2
:1023500021968F770E94B20FE8E6F0E004C00E9459
:10236000B20FE5E9F0E00E94DD128B01BE01EC0145
:10237000FB2E6F5771097595771F880B990B0E947B
:10238000C61028E132E741E35FE30E94E611AF2D7A
:102390009801AE01FF900F911F91CF91DF910E94A4
:1023A000C90F0C943C110E94E6110C943C110E9440
:1023B0002E1138F00E94351120F0952311F00C9465
:1023C00025110C942B1111240C9470110E944D11A5
:1023D00070F3959FC1F3950F50E0551F629FF00178
:1023E000729FBB27F00DB11D639FAA27F00DB11D91
:1023F000AA1F649F6627B00DA11D661F829F22271A
:10240000B00DA11D621F739FB00DA11D621F839FA0
:10241000A00D611D221F749F3327A00D611D231F76
:10242000849F600D211D822F762F6A2F11249F57C4
:1024300050409AF0F1F088234AF0EE0FFF1FBB1FC7
:10244000661F771F881F91505040A9F79E3F510586
:1024500080F00C9425110C9470115F3FE4F3983ECA
:10246000D4F3869577956795B795F795E7959F5F30
:10247000C1F7FE2B880F911D9695879597F90895C2
:10248000FA01EE0FFF1F309621053105A1F161150C
:10249000710561F48038BFE39B0749F16894903877
:1024A000810561F08038BFEF9B0741F099234AF521
:1024B000FF3FE1053105210519F1E8940894E795FE
:1024C000D901AA2329F4AB2FBE2FF85FD0F310C097
:1024D000FF5F70F4A695E0F7F73950F019F0FF3A76
:1024E00038F49F779F930DD00F9007FC9058089574
:1024F00046F00C942B1160E070E080E89FE30895B3
:102500004FE79F775F934F933F932F930E948B11D9
:102510002F913F914F915F910E94D3110C949D1286
:102520000E940111880B990B089529F416F00C9460
:1025300025110C946F110C942B110E945511A8F3C6
:102540009638A0F707F80F92E8942BE33AEA48EBA5
:102550005FE70E94E9110F920F920F924DB75EB79D
:102560000F920E944613E2ECF0E00E94DD124F91C0
:102570005F91EF91FF91E595EE1FFF1F49F0FE5728
:10258000E0684427EE0F441FFA95E1F74195550B9B
:102590000E9410130F9007FE0C94041308959F3FA0
:1025A00031F0915020F4879577956795B795880F0E
:1025B000911D9695879597F90895DF93CF931F9373
:1025C0000F93FF92EF92DF927B018C01689406C01B
:1025D000DA2EEF010E94E611FE01E894A591259103
:1025E000359145915591A6F3EF010E94C90FFE0167
:1025F0009701A801DA9469F7DF90EF90FF900F91AF
:102600001F91CF91DF9108959B01AC0160E070E0D4
:1026100080E89FE30C9423100C9425110C94CF12A6
:102620000E945511D8F39923C9F3940F511DA3F3B8
:102630009150504094F059F0882332F0660F771F84
:10264000881F91505040C1F79E3F51052CF7880FCD
:10265000911D9695879597F908955F3FACF0983E48
:102660009CF0BB27869577956795B79508F4B16080
:102670009395C1F7BB0F58F711F460FFE8CF6F5F78
:102680007F4F8F4F9F4FE3CF0C947011FA01DC0105
:10269000AA0FBB1F9B01AC01BF5728F42227332789
:1026A0004427507820C0B75190F4AB2F00244695B2
:1026B00037952795011CA395D2F3002071F0220FC6
:1026C000331F441FB395DAF30ED00C94B10F613071
:1026D0007105A0E88A07B94630F49B01AC01662772
:1026E000772788279078309621F0208331834283A2
:1026F00053830895A1E21A2EAA1BBB1BFD010DC036
:10270000AA1FBB1FEE1FFF1FA217B307E407F507A1
:1027100020F0A21BB30BE40BF50B661F771F881F7D
:10272000991F1A9469F760957095809590959B0113
:10273000AC01BD01CF010895052E97FB1EF4009456
:102740000E94B31357FD07D00E947A1307FC03D0F1
:102750004EF40C94B31350954095309521953F4F0E
:102760004F4F5F4F089590958095709561957F4F7D
:102770008F4F9F4F0895EE0FFF1F0590F491E02DAE
:062780000994F894FFCF5C
:102786000100004000140054000705070000000087
:10279600000404040404040404000000002C018363
:1027A60002CD007901FE00DC00F000000000006EA2
:1027B600034103840417033A0327031803000000A8
:1027C600005B0783028404B0026E616E00696E6668
:1027D600006F76660054657374652053656E736F7B
:1027E60072656E2E2E004665686C65722053656EA6
:1027F600736F7220310053656E736F7220312069DA
:102806006E204F72646E756E67004665686C657201
:102816002053656E736F7220320053656E736F724C
:10282600203220696E204F72646E756E67004350C9
:1028360055204E657573746172742E2E2E2E2E00E1
:102846005331693A2000432C2000250053326F3A59
:1028560020005450313A200043005450323A2000B0
:102866004CF56674657220414E004CF566746572CF
:102876002041555300536569742000204D696E75DB
:1028860074656E2E002068005AE1686C65723A0025
:0E28960044656C74615450312D323A200000BC
:00000001FF
